{
  "_format": "hh-sol-artifact-1",
  "contractName": "TransactionLogger",
  "sourceName": "contracts/TransactionLogger.sol",
  "abi": [
    {
      "inputs": [
        {
          "internalType": "address",
          "name": "_usdtTokenAddress",
          "type": "address"
        },
        {
          "internalType": "uint256",
          "name": "_minimumAmount",
          "type": "uint256"
        }
      ],
      "stateMutability": "nonpayable",
      "type": "constructor"
    },
    {
      "inputs": [],
      "name": "TransactionLogger__InsufficientAllowance",
      "type": "error"
    },
    {
      "inputs": [],
      "name": "TransactionLogger__MininumTransferAmountNotMet",
      "type": "error"
    },
    {
      "inputs": [],
      "name": "TransactionLogger__MismatchedReceiversAndAmounts",
      "type": "error"
    },
    {
      "inputs": [],
      "name": "TransactionLogger__TransactionFailed",
      "type": "error"
    },
    {
      "anonymous": false,
      "inputs": [
        {
          "indexed": true,
          "internalType": "address",
          "name": "sender",
          "type": "address"
        },
        {
          "indexed": true,
          "internalType": "address",
          "name": "receiver",
          "type": "address"
        },
        {
          "indexed": false,
          "internalType": "uint256",
          "name": "amount",
          "type": "uint256"
        },
        {
          "indexed": false,
          "internalType": "uint256",
          "name": "timestamp",
          "type": "uint256"
        }
      ],
      "name": "TransactionSent",
      "type": "event"
    },
    {
      "inputs": [],
      "name": "minimumAmount",
      "outputs": [
        {
          "internalType": "uint256",
          "name": "",
          "type": "uint256"
        }
      ],
      "stateMutability": "view",
      "type": "function"
    },
    {
      "inputs": [
        {
          "internalType": "address",
          "name": "receiver",
          "type": "address"
        },
        {
          "internalType": "uint256",
          "name": "amount",
          "type": "uint256"
        }
      ],
      "name": "sendFunds",
      "outputs": [],
      "stateMutability": "nonpayable",
      "type": "function"
    },
    {
      "inputs": [
        {
          "internalType": "address[]",
          "name": "receivers",
          "type": "address[]"
        },
        {
          "internalType": "uint256[]",
          "name": "amounts",
          "type": "uint256[]"
        }
      ],
      "name": "sendMultiFunds",
      "outputs": [],
      "stateMutability": "nonpayable",
      "type": "function"
    }
  ],
  "bytecode": "0x608060405234801561001057600080fd5b50604051610ab2380380610ab283398181016040528101906100329190610119565b816000806101000a81548173ffffffffffffffffffffffffffffffffffffffff021916908373ffffffffffffffffffffffffffffffffffffffff160217905550806001819055505050610159565b600080fd5b600073ffffffffffffffffffffffffffffffffffffffff82169050919050565b60006100b082610085565b9050919050565b6100c0816100a5565b81146100cb57600080fd5b50565b6000815190506100dd816100b7565b92915050565b6000819050919050565b6100f6816100e3565b811461010157600080fd5b50565b600081519050610113816100ed565b92915050565b600080604083850312156101305761012f610080565b5b600061013e858286016100ce565b925050602061014f85828601610104565b9150509250929050565b61094a806101686000396000f3fe608060405234801561001057600080fd5b50600436106100415760003560e01c80636f64234e146100465780638fa98c6e14610062578063bb0c82981461007e575b600080fd5b610060600480360381019061005b91906104a8565b61009c565b005b61007c60048036038101906100779190610704565b6100e7565b005b6100866101d5565b604051610093919061078b565b60405180910390f35b6001548110156100d8576040517f15d9060c00000000000000000000000000000000000000000000000000000000815260040160405180910390fd5b6100e33383836101db565b5050565b8051825114610122576040517f806b995100000000000000000000000000000000000000000000000000000000815260040160405180910390fd5b60005b82518110156101d057600154828281518110610144576101436107a6565b5b60200260200101511015610184576040517f15d9060c00000000000000000000000000000000000000000000000000000000815260040160405180910390fd5b6101c33384838151811061019b5761019a6107a6565b5b60200260200101518484815181106101b6576101b56107a6565b5b60200260200101516101db565b8080600101915050610125565b505050565b60015481565b60008060009054906101000a900473ffffffffffffffffffffffffffffffffffffffff1673ffffffffffffffffffffffffffffffffffffffff1663dd62ed3e85306040518363ffffffff1660e01b81526004016102399291906107e4565b602060405180830381865afa158015610256573d6000803e3d6000fd5b505050506040513d601f19601f8201168201806040525081019061027a9190610822565b9050818110156102b6576040517fff5b8d1300000000000000000000000000000000000000000000000000000000815260040160405180910390fd5b60008060009054906101000a900473ffffffffffffffffffffffffffffffffffffffff1673ffffffffffffffffffffffffffffffffffffffff166323b872dd8686866040518463ffffffff1660e01b81526004016103169392919061084f565b6020604051808303816000875af1158015610335573d6000803e3d6000fd5b505050506040513d601f19601f8201168201806040525081019061035991906108be565b905080610392576040517f76f85e0600000000000000000000000000000000000000000000000000000000815260040160405180910390fd5b8373ffffffffffffffffffffffffffffffffffffffff168573ffffffffffffffffffffffffffffffffffffffff167f6d3e038844bf8184d1da4779d878e2ac8180f3ac69e7ade46be2c69d7d86f30f85426040516103f19291906108eb565b60405180910390a35050505050565b6000604051905090565b600080fd5b600080fd5b600073ffffffffffffffffffffffffffffffffffffffff82169050919050565b600061043f82610414565b9050919050565b61044f81610434565b811461045a57600080fd5b50565b60008135905061046c81610446565b92915050565b6000819050919050565b61048581610472565b811461049057600080fd5b50565b6000813590506104a28161047c565b92915050565b600080604083850312156104bf576104be61040a565b5b60006104cd8582860161045d565b92505060206104de85828601610493565b9150509250929050565b600080fd5b6000601f19601f8301169050919050565b7f4e487b7100000000000000000000000000000000000000000000000000000000600052604160045260246000fd5b610536826104ed565b810181811067ffffffffffffffff82111715610555576105546104fe565b5b80604052505050565b6000610568610400565b9050610574828261052d565b919050565b600067ffffffffffffffff821115610594576105936104fe565b5b602082029050602081019050919050565b600080fd5b60006105bd6105b884610579565b61055e565b905080838252602082019050602084028301858111156105e0576105df6105a5565b5b835b8181101561060957806105f5888261045d565b8452602084019350506020810190506105e2565b5050509392505050565b600082601f830112610628576106276104e8565b5b81356106388482602086016105aa565b91505092915050565b600067ffffffffffffffff82111561065c5761065b6104fe565b5b602082029050602081019050919050565b600061068061067b84610641565b61055e565b905080838252602082019050602084028301858111156106a3576106a26105a5565b5b835b818110156106cc57806106b88882610493565b8452602084019350506020810190506106a5565b5050509392505050565b600082601f8301126106eb576106ea6104e8565b5b81356106fb84826020860161066d565b91505092915050565b6000806040838503121561071b5761071a61040a565b5b600083013567ffffffffffffffff8111156107395761073861040f565b5b61074585828601610613565b925050602083013567ffffffffffffffff8111156107665761076561040f565b5b610772858286016106d6565b9150509250929050565b61078581610472565b82525050565b60006020820190506107a0600083018461077c565b92915050565b7f4e487b7100000000000000000000000000000000000000000000000000000000600052603260045260246000fd5b6107de81610434565b82525050565b60006040820190506107f960008301856107d5565b61080660208301846107d5565b9392505050565b60008151905061081c8161047c565b92915050565b6000602082840312156108385761083761040a565b5b60006108468482850161080d565b91505092915050565b600060608201905061086460008301866107d5565b61087160208301856107d5565b61087e604083018461077c565b949350505050565b60008115159050919050565b61089b81610886565b81146108a657600080fd5b50565b6000815190506108b881610892565b92915050565b6000602082840312156108d4576108d361040a565b5b60006108e2848285016108a9565b91505092915050565b6000604082019050610900600083018561077c565b61090d602083018461077c565b939250505056fea264697066735822122029956aa3f76a21042b72ea60e32a8e3765144bf484e9859610594f7183555dbe64736f6c63430008180033",
  "linkReferences": {},
  "deployedLinkReferences": {}
}