{
  "_format": "hh-sol-artifact-1",
  "contractName": "TransactionLogger",
  "sourceName": "contracts/TransactionLogger.sol",
  "abi": [
    {
      "inputs": [],
      "name": "TransactionLogger__InsufficientOrExcessFunds",
      "type": "error"
    },
    {
      "inputs": [],
      "name": "TransactionLogger__MininumTransferAmountNotMet",
      "type": "error"
    },
    {
      "inputs": [],
      "name": "TransactionLogger__MismatchedReceiversAndAmounts",
      "type": "error"
    },
    {
      "inputs": [],
      "name": "TransactionLogger__TransactionFailed",
      "type": "error"
    },
    {
      "anonymous": false,
      "inputs": [
        {
          "indexed": true,
          "internalType": "address",
          "name": "sender",
          "type": "address"
        },
        {
          "indexed": true,
          "internalType": "address",
          "name": "receiver",
          "type": "address"
        },
        {
          "indexed": false,
          "internalType": "uint256",
          "name": "amount",
          "type": "uint256"
        },
        {
          "indexed": false,
          "internalType": "uint256",
          "name": "timestamp",
          "type": "uint256"
        }
      ],
      "name": "TransactionSent",
      "type": "event"
    },
    {
      "inputs": [],
      "name": "MINIMUM_AMOUNT",
      "outputs": [
        {
          "internalType": "uint256",
          "name": "",
          "type": "uint256"
        }
      ],
      "stateMutability": "view",
      "type": "function"
    },
    {
      "inputs": [
        {
          "internalType": "address payable",
          "name": "receiver",
          "type": "address"
        }
      ],
      "name": "sendFunds",
      "outputs": [],
      "stateMutability": "payable",
      "type": "function"
    },
    {
      "inputs": [
        {
          "internalType": "address payable[]",
          "name": "receivers",
          "type": "address[]"
        },
        {
          "internalType": "uint256[]",
          "name": "amounts",
          "type": "uint256[]"
        }
      ],
      "name": "sendMultiFunds",
      "outputs": [],
      "stateMutability": "payable",
      "type": "function"
    }
  ],
  "bytecode": "0x608060405234801561001057600080fd5b5061083e806100206000396000f3fe6080604052600436106100345760003560e01c8063257d9bb8146100395780638fa98c6e14610064578063cfe52bdd14610080575b600080fd5b34801561004557600080fd5b5061004e61009c565b60405161005b919061038d565b60405180910390f35b61007e60048036038101906100799190610662565b6100a7565b005b61009a600480360381019061009591906106da565b610216565b005b6601c6bf5263400081565b80518251146100e2576040517f806b995100000000000000000000000000000000000000000000000000000000815260040160405180910390fd5b6000805b825181101561017e576601c6bf5263400083828151811061010a57610109610707565b5b602002602001015111610149576040517f15d9060c00000000000000000000000000000000000000000000000000000000815260040160405180910390fd5b82818151811061015c5761015b610707565b5b60200260200101518261016f9190610765565b915080806001019150506100e6565b508034146101b8576040517f5b1765e100000000000000000000000000000000000000000000000000000000815260040160405180910390fd5b60005b835181101561021057610203338583815181106101db576101da610707565b5b60200260200101518584815181106101f6576101f5610707565b5b6020026020010151610264565b80806001019150506101bb565b50505050565b6601c6bf526340003411610256576040517f15d9060c00000000000000000000000000000000000000000000000000000000815260040160405180910390fd5b610261338234610264565b50565b60008273ffffffffffffffffffffffffffffffffffffffff168260405161028a906107ca565b60006040518083038185875af1925050503d80600081146102c7576040519150601f19603f3d011682016040523d82523d6000602084013e6102cc565b606091505b5050905080610307576040517f76f85e0600000000000000000000000000000000000000000000000000000000815260040160405180910390fd5b8273ffffffffffffffffffffffffffffffffffffffff168473ffffffffffffffffffffffffffffffffffffffff167f6d3e038844bf8184d1da4779d878e2ac8180f3ac69e7ade46be2c69d7d86f30f84426040516103669291906107df565b60405180910390a350505050565b6000819050919050565b61038781610374565b82525050565b60006020820190506103a2600083018461037e565b92915050565b6000604051905090565b600080fd5b600080fd5b600080fd5b6000601f19601f8301169050919050565b7f4e487b7100000000000000000000000000000000000000000000000000000000600052604160045260246000fd5b61040a826103c1565b810181811067ffffffffffffffff82111715610429576104286103d2565b5b80604052505050565b600061043c6103a8565b90506104488282610401565b919050565b600067ffffffffffffffff821115610468576104676103d2565b5b602082029050602081019050919050565b600080fd5b600073ffffffffffffffffffffffffffffffffffffffff82169050919050565b60006104a98261047e565b9050919050565b6104b98161049e565b81146104c457600080fd5b50565b6000813590506104d6816104b0565b92915050565b60006104ef6104ea8461044d565b610432565b9050808382526020820190506020840283018581111561051257610511610479565b5b835b8181101561053b578061052788826104c7565b845260208401935050602081019050610514565b5050509392505050565b600082601f83011261055a576105596103bc565b5b813561056a8482602086016104dc565b91505092915050565b600067ffffffffffffffff82111561058e5761058d6103d2565b5b602082029050602081019050919050565b6105a881610374565b81146105b357600080fd5b50565b6000813590506105c58161059f565b92915050565b60006105de6105d984610573565b610432565b9050808382526020820190506020840283018581111561060157610600610479565b5b835b8181101561062a578061061688826105b6565b845260208401935050602081019050610603565b5050509392505050565b600082601f830112610649576106486103bc565b5b81356106598482602086016105cb565b91505092915050565b60008060408385031215610679576106786103b2565b5b600083013567ffffffffffffffff811115610697576106966103b7565b5b6106a385828601610545565b925050602083013567ffffffffffffffff8111156106c4576106c36103b7565b5b6106d085828601610634565b9150509250929050565b6000602082840312156106f0576106ef6103b2565b5b60006106fe848285016104c7565b91505092915050565b7f4e487b7100000000000000000000000000000000000000000000000000000000600052603260045260246000fd5b7f4e487b7100000000000000000000000000000000000000000000000000000000600052601160045260246000fd5b600061077082610374565b915061077b83610374565b925082820190508082111561079357610792610736565b5b92915050565b600081905092915050565b50565b60006107b4600083610799565b91506107bf826107a4565b600082019050919050565b60006107d5826107a7565b9150819050919050565b60006040820190506107f4600083018561037e565b610801602083018461037e565b939250505056fea2646970667358221220415b748ef964be194a93139d2a3cb05727ca0a528f3ae00b1696b22123e8aed264736f6c63430008180033",
  "linkReferences": {},
  "deployedLinkReferences": {}
}